:100000000000042091090000B9090000BB090000AC
:10001000BD090000BF090000C10900000000000088
:10002000000000000000000000000000C309000004
:10003000C509000000000000C7090000C909000050
:10004000393800005D220000CB090000CB09000018
:10005000CB090000CB090000E9340000CB09000007
:10006000513C00006D3C0000893C0000CB090000C1
:10007000CB090000CB090000CB090000CB09000030
:10008000CB09000055120000CB090000CB0900008D
:100090004D24000095120000CB090000CB090000A0
:1000A000CB090000CB090000A53C0000C13C0000CA
:1000B000CB090000CB090000000000000000000098
:1000C000CB090000CB090000CB090000CB090000E0
:1000D000CB090000CB090000CB090000CB090000D0
:1000E000CB090000CB090000CB0900000000000094
:1000F00000000000CB09000000000000CB09000058
:1001000000000000000000000000000000000000EF
:1001100000000000000000000000000000000000DF
:1001200000000000000000000000000000000000CF
:1001300000000000000000000000000000000000BF
:1001400000000000000000000000000000000000AF
:10015000000000000000000000000000000000009F
:10016000000000000000000000000000000000008F
:10017000000000000000000000000000000000007F
:10018000000000000000000000000000000000006F
:10019000000000000000000000000000000000005F
:1001A000000000000000000000000000000000004F
:1001B000000000000000000000000000000000003F
:1001C000000000000000000000000000000000002F
:1001D000000000000000000000000000000000001F
:1001E000000000000000000000000000000000000F
:1001F00000000000000000000000000000000000FF
:100200000348044B834202D0034B03B118477047A5
:10021000B4000020B400002000000000054806499A
:10022000091A891001EBD171491002D0034B03B1B7
:1002300018477047B4000020B40000200000000000
:1002400010B5064C237843B9FFF7DAFF044B13B11E
:100250000448AFF300800123237010BDB4000020D8
:1002600000000000884D000008B5054B1BB1054992
:100270000548AFF30080BDE80840FFF7CFBF00BFDF
:1002800000000000B8000020884D0000154B002B36
:1002900008BF134B9D46A3F5803A00218B460F46BD
:1002A0001348144A121A04F06AF80F4B002B00D0BE
:1002B00098470E4B002B00D09847002000210400E7
:1002C0000D000D48002802D00C48AFF3008004F068
:1002D00027F82000290000F031F904F00DF800BFE4
:1002E00000000800000004200000000000000000E2
:1002F000B4000020BC060020000000000000000048
:1003000080B483B000AF78607B681B681F2B02D875
:100310004FF0A04306E07B681B6803F01F027B6878
:100320001A60034B18460C37BD465DF8047B7047D6
:100330000003005080B584B000AF786008461146D5
:100340001A460346FB700B46BB7013467B703B1D81
:100350001846FFF7D5FFF860FA78BB785B001A43C0
:100360007B789B001A433B7E1B0242EA03013B7FE2
:100370001B047A681943FB6802F5E07243F8221007
:1003800000BF1037BD4680BD80B584B002AF786035
:1003900000230193002300930023012201217868A8
:1003A000FFF7C8FF00BF0837BD4680BD80B584B0E9
:1003B00000AF78603B1D1846FFF7A2FFF8607B682E
:1003C000012202FA03F31946F86800F019F800BF99
:1003D0001037BD4680BD80B584B000AF78603B1D4E
:1003E0001846FFF78DFFF8607B68012202FA03F3DD
:1003F0001946F86800F013F800BF1037BD4680BDFD
:1004000080B483B000AF786039607B683A68C3F825
:10041000082500BF0C37BD465DF8047B704780B4EB
:1004200083B000AF786039607B683A68C3F80C2508
:1004300000BF0C37BD465DF8047B704780B582B0C5
:1004400000AF78600B46FB70F9787B681B781A4622
:10045000034800F069FA00BF0837BD4680BD00BF01
:100460009C4C000080B582B000AF78600B46FB70FA
:10047000044800F059FA044B01221A6000BF083703
:10048000BD4680BDC44C0000D000002080B400AF49
:100490004FF080430022C3F800214FF08043012237
:1004A0001A6000BF4FF08043D3F80031002BF9D021
:1004B00000BFBD465DF8047B7047000080B582B088
:1004C00000AF0B237B6002233B7000237B70BB7863
:1004D0006FF30003BB70BB786FF34103BB70BB7855
:1004E0006FF38203BB7003237B7002F047FE3B4631
:1004F000094A1946786802F09BFE0121786802F0EB
:1005000007FF2C20FFF740FF2C20FFF764FF00BF00
:100510000837BD4680BD00BF6504000080B500AF50
:100520001820FFF731FF1920FFF72EFF1820FFF7E3
:100530003DFF1920FFF74FFF00BF80BD80B582B09F
:1005400000AF00F0CAF9FFF7B9FF104800F0ECF96E
:10055000FFF79CFF00F03EF82C20FFF727FFFFF786
:10056000DDFF00F00DF903467B600949012000F032
:1005700047F90849012000F067F9074B1B68012B78
:10058000FBD1054B00221A60F7E700BFD44C0000F6
:10059000000000203D040000D000002080B582B0A3
:1005A00000AF03463960FB80FB88B3F5A07F08D11C
:1005B000064B01221A70064803F000FB044803F0C2
:1005C000E1FA00BF0837BD4680BD00BFD40000205F
:1005D000E04C000080B582B000AF03F09FFB002329
:1005E0003B7000237B700023BB700723FB7000234C
:1005F0007B6004233B7000237B700323BB703B466E
:10060000044A1946044803F04DFA00BF0837BD46B6
:1006100080BD00BF9D050000E04C000080B582B0A9
:1006200000AF78607B681B78012B11D0022B1AD0A9
:10063000002B00D03FE07B685B681946204800F043
:1006400073F9204B00221A70012000F047F832E0C5
:100650001D4800F069F91B4B00221A7002F04EF899
:1006600001F0A2FF27E0194800F05EF91AE0184BEC
:100670001B78002B16D0164B5B78012B12D8144B2D
:100680005B781A46134B53F82230002B0AD0104BDC
:100690005B781A460F4B53F822300D4A12781146F8
:1006A0000D4898470A4801F011FF0346002BDED0A1
:1006B00002F046F800BF00BF0837BD4680BD00BF4E
:1006C000E84C0000FE0000200C4D0000204D000012
:1006D000D800002000010020DD00002080B584B09B
:1006E00000AF0346FB7101F0D1FF01F07FFE214A0C
:1006F000FB7953701F4801F0F9FD1F4B1B793B73C9
:100700001D4B5B7A7B73052002F042F80346002BF9
:1007100002D06FF0010329E0174802F063F80346A6
:10072000002B02D06FF0010320E0144802F07CF8A7
:100730000346002B02D06FF0010317E007F10C0312
:100740000221184602F092F80346002B02D06FF007
:1007500001030BE0FB79002B02D101F025FF04E03F
:10076000FB79012B01D101F039FF00231846103726
:10077000BD4680BD0800002020000020250000208C
:1007800080B500AF1B4B01221A701A4B01225A7020
:10079000184B194A5A60174B00221A72154B022245
:1007A0005A72144B04229A72124B4FF416729A81A9
:1007B000104B0A22DA810F4B00221A740D4B0022D3
:1007C0001A750C4801F092FD0346002B02D06FF021
:1007D00001030CE0282002F081F80346002B02D030
:1007E0006FF0010303E0054B01221A700023184645
:1007F00080BD00BF080000201D060000FD00002095
:1008000080B582B000AF03463960FB71FB79012BE4
:1008100002D96FF0030311E03B68002B02D16FF0A7
:1008200003030BE0FA7913469B001344054A134473
:1008300005223968184603F097FD0023184608374B
:10084000BD4680BD2000002080B582B000AF0346C9
:100850003960FB71FB79012B02D96FF003030EE0C5
:100860003B68002B02D16FF0030308E0FB790649D7
:100870003A6841F823200120FFF730FF034618466D
:100880000837BD4680BD00BF0001002080B483B0A2
:1008900000AF78604FF06043D3F8803E03F001036F
:1008A000002B13D04FF06043D3F8003E03F0010358
:1008B000002B0BD000E000BF4FF060431B68002B03
:1008C000F9D04FF060437A68D2B21A707B6818464C
:1008D0000C37BD465DF8047B704780B400AF4FF025
:1008E0008043D3F85C3523F003034FF0804243F09C
:1008F0000103C2F85C354FF06043D3F8803E4FF0FF
:10090000604243F00103C2F8803E4FF06043D3F8E9
:10091000003E4FF0604243F00103C2F8003E00BFCA
:10092000BD465DF8047B70470FB480B5C4B000AF1E
:1009300007F58E723B1D1A603B1D07F108001B680E
:10094000D7F81821FF2103F04FFD0346C7F80831FF
:100950000023C7F80C310DE007F10802D7F80C317D
:1009600013441B781846FFF791FFD7F80C31013379
:10097000C7F80C31D7F80C21D7F808319A42EBD3DD
:1009800000BF07F58877BD46BDE8804004B07047DA
:100990000649074A074B9B1A03DD043BC858D05051
:1009A000FBDC03F067FBFFF771FC0000944D0000D7
:1009B00000000020B4000020FEE7FEE7FEE7FEE7AF
:1009C000FEE7FEE7FEE7FEE7FEE7FEE780B483B062
:1009D00000AF0346FB7197F90730002B0BDBFB7967
:1009E00003F01F02074997F907305B09012000FA5D
:1009F00002F241F8232000BF0C37BD465DF8047BAE
:100A0000704700BF00E100E080B483B000AF034650
:100A1000FB7197F90730002B10DBFB7903F01F0205
:100A2000094997F907305B09012000FA02F22033E7
:100A300041F82320BFF34F8FBFF36F8F00BF0C37F8
:100A4000BD465DF8047B704700E100E080B483B0F0
:100A500000AF0346FB7197F90730002B0CDBFB79E5
:100A600003F01F02074997F907305B09012000FADC
:100A700002F2403341F8232000BF0C37BD465DF839
:100A8000047B704700E100E080B483B000AF034610
:100A9000FB7197F90730002B0CDBFB7903F01F0289
:100AA000074997F907305B09012000FA02F2603329
:100AB00041F8232000BF0C37BD465DF8047B70472A
:100AC00000E100E080B584B000AF78607B68002B67
:100AD0000AD0074B43F00103FB607B689B01BB60BE
:100AE000FB68B868984700E000BF1037BD4680BD7E
:100AF000404D000080B500AF0D4B4FF48032C3F87D
:100B000044230B4B4FF48032C3F804231120FFF72A
:100B1000BBFF1120FFF75AFF054B01221A602F205F
:100B2000FFF7D0FF034B01221A7000BF80BD00BF4A
:100B3000001001402602002080B500AF1120FFF711
:100B400063FF0F4B4FF48032C3F848230C4B4FF434
:100B50008032C3F808230A4B01225A602F20FFF786
:100B6000B1FF074B01229A60064B00221A602F202A
:100B7000FFF7A8FF044B00221A7000BF80BD00BF22
:100B800000100140180200202602002080B400AFAF
:100B9000034BD3F804351846BD465DF8047B704717
:100BA0000010014080B483B000AF786039607A688B
:100BB0003B68D31A23F07F4318460C37BD465DF8D7
:100BC000047B704780B483B000AF7860044A7B68D0
:100BD000C2F8403500BF0C37BD465DF8047B704756
:100BE0000010014080B487B000AF7860294B1B68CB
:100BF000002B03D1274A7B68136045E07B681A68A5
:100C0000244B1B681B689A4210D8224B1B6819683A
:100C10007B681A681F4B1B688A1A1A601D4B1A687A
:100C20007B68DA611B4A7B6813602DE07B681B6878
:100C3000FB60184B1B687B61164B1B683B6109E02E
:100C40003B691B68FA68D31AFB603B697B613B69AF
:100C5000DB693B613B69002B04D03B691B68FA6888
:100C60009A42EDD83B69002B05D03B691A68FB68B6
:100C7000D21A3B691A607B68FA681A607B683A6925
:100C8000DA617B697A68DA6100BF1C37BD465DF8BE
:100C9000047B70471402002080B586B000AF7860F6
:100CA000294B1B68FB60284B1B687B617B693B61A0
:100CB00008E03A697B689A4208D03B697B613B69EE
:100CC000DB693B613B69002BF3D100E000BF3B696E
:100CD000002B01D1002333E07A693B699A4214D199
:100CE000194B1B68DB69184A1360174B1B68002BF4
:100CF0000BD1164B01229A60154B00221A60154B3E
:100D000001221A702F20FFF7DDFE3B691B68BB60D4
:100D10003B69DA697B69DA617B69DB693B613B6965
:100D2000002B05D03B691A68BB681A443B691A60FE
:100D3000054B1B68FA689A4214BF01230023DBB2FB
:100D400018461837BD4680BD14020020001001402F
:100D5000180200202702002080B500AF1120FFF705
:100D600075FE00BF80BD80B500AF1520FFF76EFE99
:100D700000BF80BD80B582B000AF78607B685B69E2
:100D80007A6892691046984700BF0837BD4680BD13
:100D900080B584B000AF2B4B1B68002B4ED00023D6
:100DA0007B60FFF7F3FE0246274B1B68194610468F
:100DB000FFF7F8FEB860234B1B68FB601DE0FB6883
:100DC0001B68BA689A421CD3FB681B68BA68D31ABE
:100DD000BB60FB681B687A6813447B60FB683B6000
:100DE000FB68DB69FB603B681B7C002B05D03B6824
:100DF00000221A743868FFF7BDFFFB68002BDED1B4
:100E000000E000BF114B1A78114B1B789A420CD1AD
:100E10000F4B1B780133DAB20D4B1A700C4B1B7859
:100E2000022B02D10A4B00221A70094B1B7819467B
:100E3000084A7B6842F82130FFF795FF00BF103762
:100E4000BD4680BD140200201802002024020020AC
:100E5000250200201C02002080B483B000AF78601F
:100E6000194B1A78194B1B789A4223D0164B1B78D2
:100E70000133DAB2144B1A70134B1B78022B02D1D8
:100E8000114B00221A70104B1B781A46104B53F866
:100E900022207B681A607B681A680E4B1B6813441B
:100EA0000C4A13600B4B1B6823F07F43094A136005
:100EB000012303E07B6800221A60002318460C37E8
:100EC000BD465DF8047B7047240200202502002007
:100ED0001C0200201802002080B489B000AFF86026
:100EE000B9607A600023FB6138E0214B1B68BB616D
:100EF000BB691B68FA689A4206D2BB691A68FB682C
:100F0000D21ABB691A602DE0BB691B68FA68D31A54
:100F1000FB60BB691B68FA691344FB61BB69002273
:100F20001A60134B1B687B61BB69DB69104A136055
:100F3000BB69DB68002B11D0BA68FB69134423F04E
:100F40007F42BB695A60BB69DA68BB699A607B689B
:100F50001A68BB69DA617B687A691A60044B1B689E
:100F6000002BC2D100BF2437BD465DF8047B70471B
:100F70001402002080B588B000AF78600023FB77B2
:100F8000654B1B687B61A9E07B68002B05D07B6803
:100F9000BB61BB69DB697B6060E0604B1B781A4614
:100FA00013465B001344DB005C4A134404333B618B
:100FB0005A4B1B780133DAB2584B1A70574B1A78D8
:100FC000564B9B789A4202D1544B00221A703B69CF
:100FD0005B68BB613B691B78022B04D0032B1AD0E2
:100FE000012B1ED01CE03B695B681846FFF754FEDE
:100FF0000346002B01D00123FB77BB6900221A7442
:101000006CE0454B1B68FB60FB6800221A74FB68B0
:10101000DB69414A1360404B1B68002BF1D15DE056
:101020005CE000BFBB691B7C002B00D056E03B6935
:101030009A68BB695A603B69DA68BB699A603B6928
:101040001A69BB69DA603B695A69BB699A61344BBA
:101050001B78002B02D0BB6900225A60BB695A681A
:10106000304B1B68D31A23F07F432F4A93420ED88C
:10107000BB695A682B4B1B6819461046FFF792FD57
:101080000246BB699B681A44BB691A6017E0254B8E
:101090001A68BB695B6819461046FFF783FDB860A4
:1010A000BB699B68BA689A4206D2BB699A68BB68FA
:1010B000D21ABB691A6002E0BB6900221A60BB69E0
:1010C00000225A60BB6900229A60BB6901221A742F
:1010D000BB690022DA61B869FFF784FD7B68002BE9
:1010E0007FF452AF0D4B1A780C4B5B789A427FF429
:1010F0004BAFFB7F002B04D1074B1B687A699A42E8
:1011000001D0012300E0002303F00103DBB2184605
:101110002037BD4680BD00BF14020020080100201A
:101120002702002018020020FEFF7F0090B589B042
:1011300000AF7860274B1B68002B44D0254B1B6801
:101140001B68FB61FFF722FDB861234B1B687B61C5
:101150007969B869FFF726FD034603333B611F4BEE
:101160001B7883F00103DBB2002B01D0FFF7C2FC38
:101170003A69FB69934238BF13467A6913447B612D
:101180007B6923F07F437B617869FFF71BFDFFF7E5
:10119000FDFCF860B969F868FFF704FD0346DC1C44
:1011A000B9697869FFF7FEFC03469C420DD9FFF749
:1011B000EDFC03461846FFF705FD2F20FFF782FCE4
:1011C000FFF7CAFD01E0FFF7B7FC00BF2437BD46BB
:1011D00090BD00BF1402002018020020260200204B
:1011E00080B586B000AF00237B600023FB75164BF3
:1011F0001B683B61154B1B68FB603B461846FFF7BD
:101200002BFE0346FB72FB7A002B07D03B683A1D8E
:1012100039691846FFF760FE0123FB757B681846A5
:10122000FFF7A8FE0346002B01D00123FB75FB7DD1
:10123000002B02D0F868FFF779FF054B00221A70E7
:1012400000BF1837BD4680BD1802002014020020E0
:101250002702002080B500AF0D4B0022C3F84021CB
:101260000B4B0022C3F84421094B0022C3F848214C
:10127000074B0022C3F84C21054B0022C3F8002184
:10128000034B0022C3F80421FFF782FD00BF80BD9D
:101290000010014080B500AFFFF7A2FF00BF80BD86
:1012A00080B483B000AF0346FB7197F90730002B81
:1012B0000BDBFB7903F01F02074997F907305B0945
:1012C000012000FA02F241F8232000BF0C37BD468E
:1012D0005DF8047B704700BF00E100E080B483B09C
:1012E00000AF0346FB7197F90730002B10DBFB7949
:1012F00003F01F02094997F907305B09012000FA42
:1013000002F2203341F82320BFF34F8FBFF36F8FDA
:1013100000BF0C37BD465DF8047B704700E100E07C
:1013200080B483B000AF0346FB7197F90730002B00
:101330000CDBFB7903F01F02074997F907305B09C3
:10134000012000FA02F2403341F8232000BF0C379D
:10135000BD465DF8047B704700E100E080B483B0D7
:1013600000AF0346FB7197F90730002B0CDBFB79CC
:1013700003F01F02074997F907305B09012000FAC3
:1013800002F2603341F8232000BF0C37BD465DF800
:10139000047B704700E100E080B483B000AF0346F7
:1013A0003960FB7197F90730002B0ADB3B68DAB232
:1013B0000C4997F907305201D2B20B4483F800234D
:1013C0000AE03B68DAB20849FB7903F00F03043BFB
:1013D0005201D2B20B441A7600BF0C37BD465DF8FD
:1013E000047B704700E100E000ED00E080B487B0CE
:1013F00000AF78607B681B687B617B69FB60FB6882
:1014000093FAA3F3BB60BB683B613B691BBA00BFA7
:1014100018461C37BD465DF8047B704780B584B024
:1014200000AF78607868FFF7E1FF0346FB60FB6878
:101430001BBA00BF18461037BD4680BD80B483B0CC
:1014400000AF78600A4B0B4AC3F814250A4B5B7C4B
:10145000013B1B04064A43F0807343F02003C2F8AB
:10146000183500BF0C37BD465DF8047B704700BFE0
:1014700000100040060003002C00002080B483B060
:1014800000AF78600C4B0D4AC3F814250C4B5B7C05
:10149000013B1B041A467B681B021A437B681343FB
:1014A000054A43F08073C2F8183500BF0C37BD46BB
:1014B0005DF8047B704700BF001000400001010090
:1014C0002C00002090B583B000AF0346FB71FB7980
:1014D00003F00103002B06D0144C1548FFF79EFFC4
:1014E0000346C4F81C35FB7903F00203002B06D039
:1014F0000E4C1048FFF792FF0346C4F82035FB79E5
:1015000003F00403002B0DD0084C0B48FFF76EFFCF
:101510000346C4F82435054C0848FFF767FF034627
:10152000C4F8283500BF0C37BD4690BD0010004000
:101530002C00002030000020340000203800002063
:1015400080B400AF044B9A7A044BC3F80C2500BF5B
:10155000BD465DF8047B7047340200200010004057
:1015600080B400AF1C4B1A7A1C4BC3F810251A4BE1
:101570001B7A042B18D801A252F823F09915000009
:1015800091150000A9150000A1150000911500009B
:10159000134B30221A6009E0114B49221A6005E012
:1015A0000F4B49221A6001E000230FE00A4B9B8990
:1015B0001A460B4B1B683E339A4206D2084B1B68F7
:1015C0009BB23E339AB2044B9A8101231846BD4622
:1015D0005DF8047B704700BF34020020001000401B
:1015E0007005002080B400AF0A4B1B78002B05D09B
:1015F000012B07D1084B094A1A6005E0064B084A3F
:101600001A6001E0002300E001231846BD465DF8A2
:10161000047B7047340200207C0500203D1400004C
:101620007D14000080B400AF194B5B7A012B0ED003
:10163000022B02D0002B14D01CE0164B4FF6FF7289
:10164000C3F83C25134B144AC3F8382514E0114B5A
:10165000FF22C3F83C250F4B40F20712C3F8382590
:101660000AE00C4B0022C3F83C250A4B0022C3F8C9
:10167000382501E0002305E0054B5A7A054BC3F8F5
:10168000342501231846BD465DF8047B704700BF32
:1016900034020020001000402110010080B582B00B
:1016A00000AF0123FB71FFF74BFFFFF759FF034624
:1016B0001A46FB791340002B14BF01230023FB7152
:1016C000FFF790FF03461A46FB791340002B14BF27
:1016D00001230023FB71FFF7A5FF03461A46FB79A0
:1016E0001340002B14BF01230023FB71054B1B6823
:1016F000054AD27C10469847FB7918460837BD4604
:1017000080BD00BF7C0500203402002080B400AF03
:101710000B4B00221A620A4B00225A62084B00222D
:101720009A62084B00221A62064B00225A62054B4D
:1017300000229A6200BFBD465DF8047B704700BF7F
:1017400074030020C804002080B584B000AFFFF708
:10175000DDFF0023FB600EE0FA681346DB00134454
:101760009B0013442F4A1A442F49FB6841F8232059
:10177000FB680133FB60FB68072BEDDD0023BB60DA
:101780000EE0BA681346DB0013449B001344274A5B
:101790001A442749BB6841F82320BB680133BB606A
:1017A000BB68072BEDDD00237B6026E07A681346DB
:1017B000DB0013449B0013441A4A99181D487A68A9
:1017C00013465B0013449B000344196019497A686F
:1017D00013465B0013449B000B44043300221A7031
:1017E00014497A6813465B0013449B000B4408338A
:1017F00000221A607B6801337B607B68072BD5DD94
:1018000000233B6007E00C4A3B68002142F82310AC
:101810003B6801333B603B68072BF4DD00BF1037AA
:10182000BD4680BD4C02002074030020A0030020B0
:10183000C8040020580600203806002080B500AFFC
:10184000144B1B7883F00103DBB2002B01D008237B
:101850001EE0114B9B6A002B02D14FF4807317E0FE
:101860000120FFF73BFD0C4B9B6A013B0A4A936248
:10187000094B5B6A0133084A5362074B5B6A072BCB
:1018800002D9054B00225A620120FFF709FD00230F
:10189000184680BD280200207403002080B582B065
:1018A00000AF03460A46FB711346BB713D4B9B6A72
:1018B000072B71D83C4B1B78012B0ED13B4B1B786F
:1018C000202B01D9002368E0364B1B6A354A52F8B9
:1018D0002330364A12781A7013E0334B5B78002BB2
:1018E00007D1304B1B6A2F4A52F8233000221A705E
:1018F00007E02C4B1B6A2B4A52F823302A4AD27C31
:101900001A70284B1B6A274A52F82330581D254B62
:101910001B6A244A52F823301B781A46244902F0E5
:1019200023FD204B1B6A1F4A52F82330FA795A7064
:10193000204BD3F848151B4B1B6A1A4A52F8233028
:101940004AB29A70174B1B6A164A52F82330BA797A
:101950001A71164B5B7803F00103002B0CBF0123B7
:101960000023D9B20F4B1B6A0E4A52F823300A46A5
:10197000DA700C4B1B6A01330A4A1362094B1B6A6B
:10198000072B02D9074B00221A62064B9B6A0133D0
:10199000044A9362012300E0002318460837BD463D
:1019A00080BD00BFC80400203402002018050020BC
:1019B0001A0500200010004080B400AF084B04223C
:1019C000C3F81025064B0022C3F80825044B40F24B
:1019D0000222C3F8002200BFBD465DF8047B7047B9
:1019E00000A0004080B400AF124B134AC3F860253A
:1019F000104B124AC3F864250E4B114AC3F86825F0
:101A00000C4B104AC3F86C250A4B0F4AC3F87025DB
:101A1000084B0E4AC3F87425064B0D4AC3F87825C7
:101A2000044B0C4AC3F87C2500BFBD465DF8047B1F
:101A3000704700BF00F001400011004000A00040CE
:101A40000411004010A0004040A1004010100040D0
:101A500044A100400010004080B582B000AF6C4B44
:101A600001221A606B4B5B6A6A4A52F823306A4A59
:101A700013606A4B1B78002B02D0012B30D094E00E
:101A8000674B1B68644A1268127810469847624B8D
:101A90001B681A79634B1A70624B00225A705E4BB6
:101AA0001B68591D5C4B1B681B781A465E4802F088
:101AB0005BFC5E4B1B685E4A43F00803C2F80032D1
:101AC0005B4B1122C3F80423544BDB891A46594B54
:101AD0001A60594B594A1A60594B02221A7064E035
:101AE0004D4B1B68DB78002B06D04C4B1B7D83F0E5
:101AF0000103DBB2002B01D0012300E00023FB71C6
:101B0000FB7903F00103FB71434B1B681A78454BCB
:101B10001A70414B1B681B795B00DAB2414B5A705B
:101B2000404B5B785AB23C4B1B68DB78002B0CBFF8
:101B300001230023DBB25BB213435BB2DAB2394B51
:101B40005A70354B1B68591D334B1B681B781A465E
:101B5000354802F009FCFB79002B16D0334B1B688B
:101B6000334A43F00803C2F80032314B1122C3F864
:101B700004232A4BDB891A462E4B1A602E4B2F4A20
:101B80001A602F4B02221A700EE0294A274B1B685D
:101B9000C2F80032264B1022C3F80423264B294AF0
:101BA0001A60274B01221A7000BF1B4B1B685A7822
:101BB0001F4BC3F82C25184B1B685B781A46012372
:101BC00003FA02F21A4BC3F830251F4BDA7C184B8C
:101BD000C3F80825164B134AC3F804250120FFF764
:101BE000BDFB0120FFF75CFB114B0022C3F8042171
:101BF0000F4B0022C3F808210D4B0022C3F810211F
:101C00000B4B01221A6000BF0837BD4680BD00BFE4
:101C10006C050020740300202C02002034020020F8
:101C20007C050020F4040020F60400204000002081
:101C3000001000406805002074050020911C000081
:101C4000290200204D1C00002C00002080B500AFB0
:101C50000C4B1B6843F001030A4A1360FFF7EEFDCB
:101C6000094B9B6A002B06D1084B00221A701420E6
:101C7000FFF756FB04E01420FFF752FBFFF7ECFEE2
:101C800000BF80BD3C050020740300202902002015
:101C900080B500AF1E4A1F4B1B68C2F800321E4AB7
:101CA0001E4B1B68C2F840351D4B9B89A3F1820275
:101CB000194BC3F84425184B0122DA60164B002259
:101CC000C3F84021144B0022C3F84421154B4FF4B4
:101CD000E052C3F80425134B4FF40052C3F8082513
:101CE0000B4B0022C3F80C210D4B1B78002B03D1AA
:101CF0000D4B1B6800209847054B0C4AC3F8042580
:101D00000B4B0C4A1A600C4B03221A7000BF80BDAB
:101D1000001000404000002000A00040700500209E
:101D20003402002000F001407C050020180500204E
:101D3000740500203D1D00002902002080B500AF81
:101D4000534B4FF4E052C3F80825524BD3F80C31F3
:101D5000002B4FD04F4BD3F80034002B4AD04E4BC2
:101D600001221A614A4B4FF40052C3F808254B4B2D
:101D70001B6843F00103494A1360494BDB891A464B
:101D8000484B1B68D31A0133474A1360FFF756FDCF
:101D9000434B1B78002B18D0444B1B78002B14D0DE
:101DA0003C4BD3F82C35DAB2404B5B785B08DBB2A6
:101DB00019461046FFF772FD0346002B05D0374B3E
:101DC0001B6843F00403354A1360394B9B6A002BB0
:101DD00003D0334B1B7C012B06D1364B00221A70EB
:101DE0001420FFF79DFA50E01420FFF799FAFFF74F
:101DF00033FE4AE02B4B1B685A1E2A490A60002B0F
:101E00001AD1254B01221A61214B4FF40052C3F81D
:101E10000825234BDB8901331A46234B1A601F4BDD
:101E20001B6843F002031D4A1360224B00221A7004
:101E30001420FFF775FA28E01F4B1B68154A43F082
:101E40000803C2F800321D4B1B681D4A1268127845
:101E5000104698470F4B1B4AC3F804251A4B1B4AE0
:101E60001A60144B02221A700B4B01221A60084BA5
:101E70004FF40052C3F80425074BD3F84431002B2C
:101E800003D0044B01221A60FFE700BF80BD00BFF2
:101E900000F001400010004000A000403C05002080
:101EA00034020020680500206C0500201805002081
:101EB0007403002029020020400000207C0500203F
:101EC0002C020020F404002074050020911C000066
:101ED00080B500AF154A164B1B68C2F80032154B8F
:101EE0001B68154AD27C10469847104B134AC3F81A
:101EF00004250E4B0022C3F810210C4B01221A615D
:101F000000BF0A4BD3F81031002BFAD0074B002248
:101F1000C3F81021064B1B68044A43F00403C2F8BF
:101F20000032024B01225A6000BF80BD0010004009
:101F3000400000207C05002034020020180500200D
:101F400080B584B000AF0023FB730023BB73012373
:101F50007B73884BD3F80034002B02D1FFF7B8FF16
:101F600005E1854B9B6A072B02D9FFF7B1FFFEE025
:101F7000804BD3F808349B00804A1344BB607D4BF0
:101F8000D3F80C34BA68128893420BD17C4B5B783F
:101F90005B08DAB2BB689B789A4203D10123BB731A
:101FA00000237B73764B5B785B08DAB2BB689A7070
:101FB000704BD3F80C349AB2BB681A80714B1B7DFE
:101FC00083F00103DBB2002B05D16D4B5B7803F08E
:101FD0000103002B01D00123FB73FB7B002B00F0DE
:101FE000AB80694B1B68634A43F00803C2F80032B8
:101FF000644B1B78002B00F08280012B40F08B801B
:10200000624B9B6A002B6BD05A4BD3F80834604A62
:1020100052F82330002B63D0564BD3F808345C4A77
:1020200052F823301B685B4A1360BB68DB78002BD7
:1020300038D0BB7B83F00103DBB2002B32D04D4B99
:10204000D3F808347B60524A7B6852F82330002270
:102050001A714F4A7B6852F823309A684C497B6862
:1020600041F82320494B9B6A013B484A9362474B06
:102070009B6A002B0DD0464A7B6852F82330002B18
:1020800007D0434A7B6852F823301B68414A1360EB
:1020900002E0404B00221A603F4B1B6843F00103F3
:1020A0003D4A1360BB680122DA703A4B1B68002B73
:1020B00020D03A4B1B68374A12681278104698476E
:1020C000344B1B681A78364B1A70324B1B68591DFB
:1020D000304B1B681B781A46324802F045F909E07C
:1020E000BB680022DA702D4B1B68002098472C4BF0
:1020F00000221A70224B5A78294B5A700BE0274B5A
:102100001B68002098471E4B1A78254B1A70244BE9
:1021100000225A7000BF244B05221A70154B154A35
:10212000D3F80834C2F82C35124B1D4AC3F80425E5
:102130001E4B1F4A1A6001E0FFF7CAFE7B7B002B93
:1021400015D00C4BD3F80834DAB2BB689B7819462B
:102150001046FFF7A3FB0346002B08D00E4B1B686D
:1021600043F004030C4A13601420FFF7D9F810372A
:10217000BD4680BD00100040C80400204805002076
:1021800018050020340200204000002074030020C5
:10219000380600202C0200203C0500207C05002091
:1021A000F4040020F6040020290200207405002019
:1021B000B521000080B500AF0C4B1B680C4A43F002
:1021C0000403C2F800320B4B1B680B4AD27C10464A
:1021D0009847074B094AC3F80425094B094A1A6076
:1021E000094B04221A7000BF80BD00BF40000020D0
:1021F000001000407C05002034020020180500205B
:1022000074050020411F00002902002080B582B023
:1022100000AF78600F4B1B7883F00103DBB2002B1B
:1022200001D0082312E07B68002B01D10E230DE0C2
:102230000120FFF753F8084B1A687B681A60064BB9
:1022400000221A600120FFF72BF8002318460837F8
:10225000BD4680BD280200203C05002080B500AFAF
:102260001F4BD3F80031002B0AD01D4BD3F8043399
:1022700003F00103002B03D0194B0022C3F8002107
:10228000174BD3F80C31002B11D0154BD3F8043376
:1022900003F00803002B0AD0114B0022C3F80C21D5
:1022A000104B1B68002B02D00E4B1B6898470C4B41
:1022B000D3F81031002B11D0094BD3F8043303F0BD
:1022C0001003002B0AD0064B0022C3F81021064B46
:1022D0001B68002B02D0044B1B68984700BF80BDD1
:1022E00000100040780500207405002080B584B0FF
:1022F00000AF78607B68002B01D10E235DE0314B8D
:102300001B78002B07D000F071F8F860FB68002BF9
:1023100001D0FB6851E07B685B682B4A1360182290
:1023200079682A4802F020F8294B00221A602022FE
:102330000021284802F023F808220021264802F054
:102340001EF8FFF7ABF9034683F00103DBB2002B65
:1023500001D0072331E0214B4FF0E732C3F81C25B1
:102360001E4B4FF04332C3F820251C4B1C4AC3F8C8
:1023700024251A4B1B4AC3F82825FFF7E5F9FFF778
:102380001BFBFFF72FFB114B5B7C03F00703194688
:102390000120FFF701F80D4B9B7C03F00703194662
:1023A0001420FEF7F9FF1420FEF77AFF0E4B0022EF
:1023B0001A70044B01221A70002318461037BD46CC
:1023C00080BD00BF2802002030020020340200201F
:1023D0003C0500204805002040050020001000407A
:1023E000E743C323A363E3132902002080B500AFB2
:1023F000104B4FF47052C3F808250F4B00221A708F
:102400000E4B00221A70FFF781F9202200210C48A0
:1024100001F0B5FF082200210A4801F0B0FF1420A6
:10242000FEF75CFF084B0322C3F800220023184686
:1024300080BD00BF00F001402902002028020020DA
:1024400048050020400500200010004080B584B001
:1024500000AF1C4B1B687B6007F108031846FFF7B1
:10246000D5FEF860FB68002B27D1174B1B68002BAB
:1024700023D0BB6803F00103002B06D000233B7080
:10248000114B1B683A4610469847BB6803F002039D
:10249000002B06D001233B700B4B1B683A461046BD
:1024A0009847BB6803F00403002B06D002233B705F
:1024B000054B1B683A461046984700BF1037BD468B
:1024C00080BD00BF6C0500203002002080B582B0C6
:1024D00000AF7860324B1B7883F00103DBB2002B36
:1024E00001D0082358E07B68002B01D10E2353E074
:1024F0002C4B9B6A002B01D105234DE00120FEF7F8
:10250000EDFE284B5B6A274A52F823301A787B6825
:102510001A70244B5B6A234A52F823305A787B683E
:102520005A70204B5B6A1F4A52F8233093F90220FD
:102530007B689A701B4B5B6A1A4A52F823301A79EF
:102540007B681A71174B5B6A164A52F82330DA78A7
:102550007B68DA707B68581D124B5B6A114A52F82F
:102560002330591D7B681B781A4601F0FDFE0D4B88
:102570005B6A01330B4A53620A4B5B6A072B02D931
:10258000084B00225A62074B9B6A013B054A936243
:102590000120FEF785FE002318460837BD4680BDA2
:1025A00028020020C804002080B500AF094B1B782A
:1025B000DBB2002B01D0112309E0074B9B6A002BF3
:1025C00002D14FF4807302E0FFF746FA0023184669
:1025D00080BD00BF290200207403002080B500AF39
:1025E000234B1B78DBB2002B01D011233DE0214BA4
:1025F0004FF0FF32C3F808231E4B0022C3F810210E
:102600001D4B1E4A1A601E4B1B681A4A43F00403F6
:10261000C2F80032174B1022C3F80423144B0422D3
:102620001A70184B9A7C134BC3F83025154BDA7C83
:10263000104BC3F808250F4B134AC3F8042501209B
:10264000FEF78CFE0120FEF72BFE0A4B0022C3F89A
:102650000421084B0022C3F80821064B0022C3F8CE
:102660001021044B01225A600023184680BD00BF90
:10267000290200200010004074050020411F0000C6
:10268000400000202C0000201805002080B400AF7E
:10269000174B1B78DBB2042B04D0154B1B78DBB235
:1026A000052B1DD1134B0022C3F80022114B4FF014
:1026B000FF32C3F80823104B00221A600D4B002292
:1026C000C3F810210B4B01221A6100BF094BD3F84C
:1026D0001031002BFAD0064B00221A70002301E0C3
:1026E00040F201131846BD465DF8047B704700BFF9
:1026F00029020020001000407405002080B500AFC2
:102700000D4B1B7883F00103DBB2002B01D00823B3
:102710000FE00120FEF7E2FD084B00229A62074B12
:1027200000221A62054B00225A620120FEF7B8FD12
:102730000023184680BD00BF28020020740300203B
:1027400080B500AF0F4B1B7883F00103DBB2002B89
:1027500001D0082314E00120FEF7C0FD0A4B00223F
:102760009A62094B00221A62074B00225A62202209
:102770000021064801F003FE0120FEF791FD002331
:10278000184680BD28020020C8040020480500200B
:1027900080B582B000AF0346FB710E4B1B78DBB2F5
:1027A000002B01D0112311E0FB79022B02D9FB7918
:1027B000052B01D9072309E0074AFB795374074B1E
:1027C0001B68074AD27C10469847002318460837F2
:1027D000BD4680BD290200202C0000207C05002081
:1027E0003402002080B582B000AF78600C4B1B78BB
:1027F000DBB2002B01D011230DE07B68002B01D14F
:102800000E2308E004227968064801F0ADFD01209E
:10281000FEF758FE002318460837BD4680BD00BFAE
:10282000290200202C00002080B582B000AF786023
:102830000C4B1B78DBB2002B01D011230DE07B6821
:10284000002B01D10E2308E004227968064801F02C
:102850008BFD0220FEF736FE002318460837BD46E2
:1028600080BD00BF290200203000002080B582B06A
:1028700000AF78600B46FB70154B1B78DBB2002B6A
:1028800001D011231FE07B68002B01D10E231AE039
:10289000FB78082B01D9072315E0FB781A467968E5
:1028A0000C4801F061FD0C4AFB781374FB78C3F10E
:1028B0000803FF2242FA03F3DAB2074B9A740420AA
:1028C000FEF700FE002318460837BD4680BD00BF56
:1028D00029020020340000202C00002080B483B0A6
:1028E00000AF78600B4B1B78DBB2002B01D01123BB
:1028F00009E07B68642B01D9072304E07B68DAB226
:10290000054BDA74002318460C37BD465DF8047B8E
:10291000704700BF290200202C00002080B483B043
:1029200000AF0346FB7197F90730002B0BDBFB79F7
:1029300003F01F02074997F907305B09012000FAED
:1029400002F241F8232000BF0C37BD465DF8047B3E
:10295000704700BF00E100E080B483B000AF0346E1
:102960003960FB7197F90730002B0ADB3B68DAB25C
:102970000C4997F907305201D2B20B4483F8002377
:102980000AE03B68DAB20849FB7903F00F03043B25
:102990005201D2B20B441A7600BF0C37BD465DF827
:1029A000047B704700E100E000ED00E080B483B0FC
:1029B00000AF78607B681B0B5BB218460C37BD46D6
:1029C0005DF8047B704780B582B000AF03460A46CD
:1029D000FB711346BB71BA7997F907301146184657
:1029E000FFF7BAFF00BF0837BD4680BD80B582B093
:1029F00000AF0346FB7197F907301846FFF78EFFCB
:102A000000BF0837BD4680BD80B582B000AF034629
:102A1000FB80FB88184600F024F803461B68012B56
:102A20000CBF01230023DBB218460837BD4680BD2A
:102A300080B584B000AF0346FB80FB88184600F0E9
:102A400010F803461A4600231360FB88184600F06E
:102A500008F803461B68FB60FB6800BF1037BD46E3
:102A600080BD80B483B000AF0346FB80FB8803F1D8
:102A7000804303F5C04318460C37BD465DF8047B20
:102A80007047000080B483B000AF7860044A7B6870
:102A9000C2F8043300BF0C37BD465DF8047B7047B5
:102AA0000060004080B483B000AF7860054BD3F87D
:102AB00004237B68134018460C37BD465DF8047B41
:102AC000704700BF0060004080B483B000AF786002
:102AD000094A7B6803F5A27352F82330064943F094
:102AE00001027B6803F5A27341F8232000BF0C3775
:102AF000BD465DF8047B70470060004080B485B03F
:102B000000AFF860B9601346FB71164AFB6803F525
:102B1000A27352F82330134923F44F3323F4407344
:102B2000FA6802F5A27241F822300E4AFB6803F5FA
:102B3000A27352F82320BB681B0203F47C51FB797B
:102B40001B0403F440330B4306491A43FB6803F5A7
:102B5000A27341F8232000BF1437BD465DF8047B03
:102B6000704700BF0060004080B483B000AF786061
:102B7000074A7B6803F5A27352F823301B0A03F05F
:102B80003F0318460C37BD465DF8047B704700BF15
:102B90000060004080B483B000AF7860074A7B6873
:102BA00003F5A27352F823301B0C03F00303DBB2CE
:102BB00018460C37BD465DF8047B70470060004046
:102BC00080B483B000AF78607B681B681F2B02D88D
:102BD0004FF0A04306E07B681B6803F01F027B6890
:102BE0001A60034B18460C37BD465DF8047B7047EE
:102BF0000003005080B584B000AF786008461146ED
:102C00001A460346FB700B46BB7013467B703B1D98
:102C10001846FFF7D5FFF860FA78BB785B001A43D7
:102C20007B789B001A433B7E1B0242EA03013B7FF9
:102C30001B047A681943FB6802F5E07243F822101E
:102C400000BF1037BD4680BD80B584B002AF78604C
:102C50000B46FB70FA780023019300230093134680
:102C6000002200217868FFF7C5FF00BF0837BD4686
:102C700080BD80B584B000AF78603B1D1846FFF77B
:102C80009FFFF8607A68FB6802F5E07253F8223023
:102C900023F00203BB607A68FB6802F5E072B96852
:102CA00043F8221000BF1037BD4680BD80B584B008
:102CB00000AF78600B46FB703B1D1846FFF780FFA6
:102CC000F8607A68FB6802F5E07253F822307A689F
:102CD00023F44031FB6802F5E07243F822107A6871
:102CE000FB6802F5E07253F82230FA7812041146BC
:102CF0007A681943FB6802F5E07243F8221000BFBE
:102D00001037BD4680BD80B584B000AF78603B1DF4
:102D10001846FFF755FFF860F86800F021F8024602
:102D20007B6822FA03F303F0010318461037BD460F
:102D300080BD80B584B000AF78603B1D1846FFF7BA
:102D40003FFFF8607A68FB6802F5E07253F82230C2
:102D50001B0C03F00303DBB218461037BD4680BDE1
:102D600080B483B000AF78607B68D3F81035184624
:102D70000C37BD465DF8047B7047000080B489B015
:102D800000AFF860B9607A60184A07F1140392E85E
:102D9000030083E80300FB68FB611BE0FB699B0009
:102DA00007F12002134453F80C3CD3F820257B682C
:102DB0001A60FB699B0007F12002134453F80C3C96
:102DC0007A681268C3F820257B6804337B60FB694E
:102DD0000133FB61FA68BB681344FA699A42DDD398
:102DE00000BF2437BD465DF8047B7047484D0000A6
:102DF00080B584B000AF78603B1D1846FFF7E0FE59
:102E0000F8607B68012202FA03F31A46FB68C3F8F4
:102E1000202500BF1037BD4680BD80B485B000AF0F
:102E200078607B685B09BB600023FB60BB68002B9C
:102E300002D0012B04D007E04FF0FF33FB6003E02A
:102E40004FF6FF73FB6000BF7B6803F01F037B60DE
:102E5000FA687B6822FA03F303F00103002B14BF26
:102E600001230023DBB218461437BD465DF8047B0E
:102E7000704780B485B000AF786039603B68FB6014
:102E80007B68DB08BB607B6803F007037B60012283
:102E90007B6802FA03F3F968BA680A4412781340AF
:102EA00018461437BD465DF8047B704780B485B082
:102EB00000AF786039603B68FB607B68DB08BB6013
:102EC0007B6803F007037B60FA68BB6813441B78D8
:102ED0005AB201217B6801FA03F35BB2134359B282
:102EE000FA68BB681344CAB21A7000BF1437BD46F3
:102EF0005DF8047B7047000080B483B000AF786059
:102F00000D4A7B681344243393F90030002B09DB0E
:102F1000094A7B681344243393F90030072B01DC02
:102F2000012300E0002303F00103DBB218460C3755
:102F3000BD465DF8047B70478005002080B483B0F7
:102F400000AF7860084A7B681344243393F900305B
:102F5000072BCCBF01230023DBB218460C37BD463C
:102F60005DF8047B704700BF8005002080B483B00B
:102F700000AF7860074A7B681344243393F900302C
:102F8000DB43DBB2DB09DBB218460C37BD465DF82C
:102F9000047B70478005002080B485B000AFF860E6
:102FA000B9607A60FB70BB6859B2104AFB68134481
:102FB00024330A461A700D49BB687A6841F8232009
:102FC000FB7883F00103DBB2002B08D0BB68083B21
:102FD000FA6851B2054A13440A4683F8542000BFE8
:102FE0001437BD465DF8047B704700BF80050020A4
:102FF00080B483B000AF7860054A7B681344243303
:10300000FF221A7000BF0C37BD465DF8047B704785
:103010008005002080B582B000AF786003497868F1
:10302000FFF744FF00BF0837BD4680BDD50500202F
:1030300080B483B000AF7860054A7B6813442433C2
:1030400093F9003018460C37BD465DF8047B704795
:103050008005002080B483B000AF7860044A7B68AC
:1030600052F8233018460C37BD465DF8047B704794
:103070008005002080B485B000AF7860074A7B6887
:103080001344543393F90030FB73FB7B23F0C003EC
:1030900018461437BD465DF8047B70478005002054
:1030A00080B485B000AF7860074A7B68134454331E
:1030B00093F90030FB73FB7B9B09DBB21846143796
:1030C000BD465DF8047B70478005002080B588B060
:1030D00000AFF860B9601346FB71FF23FB77FB7903
:1030E000002B01D0002300E008237B61FB79002B3B
:1030F00001D0082300E009233B617B69BB6112E03A
:103100000E4ABB6952F82330B3F1FF3F08D1FB7977
:10311000BA68B969F868FFF73FFFBB69FB7706E05B
:10312000BB690133BB61BA693B699A42E8D397F93D
:103130001F3018462037BD4680BD00BF80050020E7
:1031400080B483B000AF0346FB71FB790A4A4FF0AD
:10315000FF3142F82310FB79072B06D9FB79083B96
:10316000054A1344FF2283F8542000BF0C37BD46A4
:103170005DF8047B704700BF8005002080B582B0F9
:1031800000AF284B93F85B30002B03D008233B6043
:103190003B6843E00023FB710DE0FB791846FFF725
:1031A0003CFE0346002B03D0FB791846FFF720FFB7
:1031B000FB790133FB71FB792F2BEED90023FB71D7
:1031C00006E0FB791846FFF7BBFFFB790133FB7183
:1031D000FB79082BF5D906220021134801F0CFF81E
:1031E0001248FFF7E3FB034607211846FFF7EBFB06
:1031F0000E48FFF7DBFB03461846FFF7F7FB4FF4DB
:10320000BE70FFF715FC4FF00040FFF73BFC054B8D
:10321000012283F85B2000233B603B681846083797
:10322000BD4680BD80050020D5050020006000401F
:1032300080B586B000AFF860B9607A6000237B612A
:10324000F868FFF793FE0346002B02D008237B614A
:1032500056E0BB689B78C3F34003DBB21A4679683B
:10326000F868FFF733FF0346FB7497F91330B3F1A7
:10327000FF3F43D0BB689B78C3F38003DBB283F08E
:103280000103DBB2002B13D0BB689B7803F0010372
:10329000DBB2002B03D0F868FFF7EBFC05E0BB685E
:1032A0005B781946F868FFF7CFFCF868FFF7B2FEC5
:1032B000BB689B7803F00203DBB2002B08D097F9C0
:1032C0001300BB681B781A46F968FFF717FC17E074
:1032D00097F91330083B0D4A134493F95410BB6817
:1032E0001B789B015AB297F91330083B0A4351B23D
:1032F000064A13440A4683F8542001E004237B6104
:103300007B6918461837BD4680BD00BF8005002088
:1033100080B588B000AF78600B46FB707868FFF727
:103320000DFE0346002B24D07868FFF781FE03468C
:10333000083B1846FFF7B4FE0346FB73FB7B032BE9
:103340000AD17868FFF7DFFC0346002B01D0032386
:1033500000E00223FB7706E0FB7B012B01D1022377
:1033600000E00323FB77FB7F19467868FFF79EFC9C
:103370002DE07868FFF7C0FD0346002B27D0786862
:10338000FFF756FE0346BB61BB699BB240339BB25D
:103390009B00FB82BB691846FFF796FBFB8A184629
:1033A000FFF746FBFB78002B11D07868FFF740FE53
:1033B00003461846FFF74EFE38613B69002B06D0E6
:1033C0000122BB6902FA03F31846FFF75BFB00BF5B
:1033D0002037BD4680BD80B584B000AF78607A6884
:1033E00002210020FFF7CAFC0023FB600BE0FB6812
:1033F0009B007A6813441B68002B01D0012306E070
:10340000FB680133FB60FB68012BF0D900231846F1
:103410001037BD4680BD000080B586B000AF786033
:1034200000237B6150E02F4A7B691344543393F9A6
:103430000030B3F1FF3F43D07869FFF71BFE3861DE
:1034400079683869FFF715FD0346002B39D0786994
:10345000FFF726FE0346FB733869FFF76AFC034655
:10346000BB73BB7B022B01D1032300E002237B73E0
:103470007B7B19463869FFF719FC3869FFF7B8FC00
:103480003869FFF7D5FD03461846FFF7E3FDB8603E
:10349000BB68002B15D0FB7B032B0BD0BB7B022B17
:1034A00002D1FB7B012B05D0BB7B032B09D1FB7B1E
:1034B000022B06D1FA7BBB6811463869984700E0B9
:1034C00000BF7B6901337B617B69002BABD07868DF
:1034D000FFF781FF0346002BA2D100BF1837BD467E
:1034E00080BD00BF8005002080B58AB000AF0023FA
:1034F0007B623B1D00221A605A604FF48073FB838D
:103500000123BB6100233B621DE0FB8B1846FFF7E4
:103510007BFA0346002B0DD0B869FFF7C3FA0346C8
:10352000002B07D0FB8B1846FFF782FA7A6ABB693B
:1035300013437B62BB695B00BB61FB8B0433FB8382
:103540003B6A01333B623B6A072BDED94FF4BE7006
:10355000FFF75AFA0346002B0DD04FF4BE70FFF769
:1035600067FA7B6A43F000437B623B1D1A460221E7
:103570000020FFF703FC7B6ADBB2002B27D001237E
:10358000BB6100233B621FE0BA697B6A1340002BDA
:1035900014D0386AFFF7E8FA7861386AFFF7FAFA68
:1035A0000346FB74386AFFF755FDF860FB68002B93
:1035B00004D0FA7CFB68114678699847BB695B00C8
:1035C000BB613B6A01333B623B6A072BDCD97B6AF8
:1035D000002B03DA3B1D1846FFF71EFF00BF2837FC
:1035E000BD4680BD80B483B000AF78604FF08042AC
:1035F0007B68C2F8083300BF0C37BD465DF8047B1A
:10360000704780B485B000AF0346FB80FB8803F1B0
:10361000804300221A60FB8803F180431B68FB6033
:10362000FB6800BF1437BD465DF8047B704780B46B
:1036300083B000AF0346FB80FB8803F180431B6827
:10364000002B14BF01230023DBB218460C37BD4604
:103650005DF8047B7047000080B500AF4FF48070C8
:10366000FFF7E5FF0346002B14D04FF48070FFF7FF
:10367000C8FF0120FFF7B6FF104B5B7983F0010311
:10368000DBB2002B06D00D4B01225A710B4B1B688D
:10369000002098474FF48270FFF7C9FF0346002BC4
:1036A0000AD04FF48270FFF7ACFF0220FFF79AFFB9
:1036B000024B1B680120984700BF80BDDC0500203D
:1036C00080B485B000AF0346FB80FB8803F18043E4
:1036D00000221A60FB8803F180431B68FB60FB68D3
:1036E00000BF1437BD465DF8047B704780B483B0DB
:1036F00000AF0346FB80FB8803F180431B68002B6F
:1037000014BF01230023DBB218460C37BD465DF819
:10371000047B704780B584B000AF0346FB80FB8814
:103720001846FFF7E3FF0346FB73FB7B002B03D038
:10373000FB881846FFF7C4FFFB7B18461037BD46D1
:1037400080BD80B400AF4FF08043D3F804331846F7
:10375000BD465DF8047B704780B582B000AFFFF7CF
:10376000F0FF78607B6803F00403002B09D04FF46E
:103770008470FFF7CFFF0346002B02D02B4B1B6852
:1037800098477B6803F02003002B0AD04FF48A701F
:10379000FFF7C0FF0346002B03D0254B1B6800201A
:1037A00098477B6803F04003002B0AD04FF48C70DD
:1037B000FFF7B0FF0346002B03D01D4B1B68012011
:1037C00098477B6803F08003002B0AD04FF48E707B
:1037D000FFF7A0FF0346002B03D0164B1B68002009
:1037E00098477B6803F48073002B0AD04FF49070E5
:1037F000FFF790FF0346002B03D00E4B1B68012000
:1038000098477B6803F40073002B0AD04FF4927042
:10381000FFF780FF0346002B03D0064B1B680220F6
:10382000984700BF0837BD4680BD00BFE4050020B3
:10383000E8050020EC05002080B500AFFFF78CFF05
:10384000FFF70AFF00BF80BD80B483B000AF03461E
:10385000FB7197F90730002B0BDBFB7903F01F029C
:10386000074997F907305B09012000FA02F241F895
:10387000232000BF0C37BD465DF8047B704700BFB6
:1038800000E100E080B483B000AF03463960FB7113
:1038900097F90730002B0ADB3B68DAB20C4997F93D
:1038A00007305201D2B20B4483F800230AE03B6890
:1038B000DAB20849FB7903F00F03043B5201D2B29C
:1038C0000B441A7600BF0C37BD465DF8047B704789
:1038D00000E100E000ED00E080B483B000AF78606C
:1038E0007B681B0B5BB218460C37BD465DF8047B4A
:1038F000704780B582B000AF03460A46FB7113469D
:10390000BB71BA7997F9073011461846FFF7BAFF2D
:1039100000BF0837BD4680BD80B582B000AF03460A
:10392000FB7197F907301846FFF78EFF00BF083785
:10393000BD4680BD80B483B000AF78600B46FB709D
:10394000FB787A68134401221A6000BF0C37BD4629
:103950005DF8047B704780B485B000AF78600B469B
:103960007B807B887A68134400221A607B887A689F
:1039700013441B68FB60FB6800BF1437BD465DF84D
:10398000047B704780B483B000AF78600B467B80C7
:103990007B887A6813441B68002B14BF0123002323
:1039A000DBB218460C37BD465DF8047B704780B427
:1039B00083B000AF786039607B68D3F804233B683C
:1039C0001340002B14BF01230023DBB218460C3731
:1039D000BD465DF8047B704780B483B000AF78606B
:1039E0000B46FB707B68D3F8043523F00302FB78A9
:1039F00003F003031A437B68C3F8042500BF0C37A8
:103A0000BD465DF8047B704780B483B000AF78603A
:103A10000B46FB707B68D3F8083523F00302FB7874
:103A200003F003031A437B68C3F8082500BF0C3773
:103A3000BD465DF8047B704780B483B000AF78600A
:103A40000B46FB707B68D3F8103523F00F02FB7830
:103A500003F00F031A437B68C3F8102500BF0C372F
:103A6000BD465DF8047B704780B483B000AF7860DA
:103A70007B689B0003F5A0739BB218460C37BD46CC
:103A80005DF8047B704780B483B000AF78604FF47A
:103A900080327B6802FA03F318460C37BD465DF8A6
:103AA000047B704790B589B000AFF860B9607A6068
:103AB000FB681B791A4613465B0013449B00304A8F
:103AC0001344BB61BB691B7A002B03D008237B61C5
:103AD0007B6950E0BB697A681A60BB685A68BB6949
:103AE0005A600023FB770DE0FB681C68FB7F1846DB
:103AF000FFF7BAFF034619462046FFF72CFFFB7F6E
:103B00000133FB77FB685B79FA7F9A42ECD3FB6861
:103B10001B681846FFF7E0FE03461A46BB68DB78D1
:103B200019461046FFF7E5FEFB681B681846FFF7CD
:103B3000D3FE03461846FFF7EFFEFB681A68BB6822
:103B40005B7819461046FFF747FFFB681A68BB68A9
:103B50009B7819461046FFF757FFFB681A68BB6849
:103B60001B7819461046FFF767FFBB6901221A72DE
:103B700000237B617B6918462437BD4690BD00BF9A
:103B8000F005002080B582B000AF78607B681B68CC
:103B900010211846FFF7CEFE7B681B791946064AAE
:103BA0000B465B000B449B001344083301221A7040
:103BB00000BF0837BD4680BDF005002080B582B04B
:103BC00000AF78607B681B680C211846FFF7B2FED7
:103BD00000BF0837BD4680BD80B586B000AFF86035
:103BE000B9601346FB710023FB7528E0FB7D184686
:103BF000FFF73AFF0346BB82FB7D1846FFF743FF02
:103C00003861BB8A1946F868FFF7BCFE0346002BF3
:103C100012D03969F868FFF7CAFE0346002B0BD0B3
:103C2000BB8A1946F868FFF796FEBB681B68BA683E
:103C30005168BA8A10469847FB7D0133FB75FA7DBF
:103C4000FB799A42D2D300BF1837BD4680BD000031
:103C500080B500AF042203490348FFF7BDFF00BF52
:103C600080BD00BFF00500200080004080B500AF9F
:103C7000042203490348FFF7AFFF00BF80BD00BF28
:103C8000FC0500200090004080B500AF04220349ED
:103C90000348FFF7A1FF00BF80BD00BF080600205A
:103CA00000A0004080B500AF062203490348FFF79B
:103CB00093FF00BF80BD00BF1406002000A001409C
:103CC00080B500AF062203490348FFF785FF00BF18
:103CD00080BD00BF2006002000B0014080B483B04A
:103CE00000AF7860044A7B68136000BF0C37BD46A4
:103CF0005DF8047B704700BF10E000E080B483B043
:103D000000AF7860044A7B68536000BF0C37BD4643
:103D10005DF8047B704700BF10E000E080B500AFA5
:103D20006FF07F40FFF7EAFF0520FFF7D7FF00BFE6
:103D300080BD000080B400AFBFF34F8F054BDB6840
:103D400003F4E0620349044B1343CB60BFF34F8F8E
:103D500000BFFDE700ED00E00400FA0580B483B089
:103D600000AF1B4B1B68B3F1FF3F0AD1194B1B6817
:103D7000DBB27B60184B1B681B0903F00F033B6031
:103D800005E0134B1B687B60144B1B683B607B6832
:103D9000082B15D13B68032B12D801A252F823F04F
:103DA000B13D0000B53D0000B93D0000BD3D000043
:103DB000012306E0012304E0012302E0012300E0E7
:103DC000002318460C37BD465DF8047B704700BFE2
:103DD00030010010E00F00F0E80F00F03401001097
:103DE00080B483B000AF1B4B1B68B3F1FF3F0AD117
:103DF000194B1B68DBB27B60184B1B681B0903F077
:103E00000F033B6005E0134B1B687B60144B1B6882
:103E10003B607B68082B15D13B68032B12D801A2AD
:103E200052F823F0353E0000393E00003D3E0000D0
:103E3000413E0000012306E0012304E0012302E0EB
:103E4000012300E0002318460C37BD465DF8047BD3
:103E5000704700BF30010010E00F00F0E80F00F0E5
:103E60003401001080B483B000AF134B1B687B603B
:103E7000124B1B683B607B68082B15D13B68032BFA
:103E800012D801A252F823F0993E00009D3E000096
:103E9000A13E0000A53E0000012306E0002304E04F
:103EA000002302E0002300E0002318460C37BD4643
:103EB0005DF8047B704700BF300100103401001032
:103EC00080B483B000AF134B1B687B60124B1B6840
:103ED0003B607B68082B15D13B68032B12D801A2ED
:103EE00052F823F0F53E0000F93E0000FD3E0000D0
:103EF000013F0000012306E0002304E0002302E06C
:103F0000002300E0002318460C37BD465DF8047B13
:103F1000704700BF300100103401001080B483B03E
:103F200000AF134B1B687B60124B1B683B607B68C8
:103F3000082B15D13B68032B12D801A252F823F0AD
:103F4000513F0000553F0000593F00005D3F000019
:103F5000012306E0002304E0002302E0002300E048
:103F6000002318460C37BD465DF8047B704700BF40
:103F7000300100103401001080B483B000AF134B47
:103F80001B687B60124B1B683B607B68082B15D15C
:103F90003B68032B12D801A252F823F0AD3F00007A
:103FA000B13F0000B53F0000B93F0000012306E02B
:103FB000002304E0002302E0002300E00023184671
:103FC0000C37BD465DF8047B704700BF3001001020
:103FD0003401001080B483B000AF1B4B1B68B3F1F9
:103FE000FF3F0AD1194B1B68DBB27B60184B1B6883
:103FF0001B0903F00F033B6005E0134B1B687B605C
:10400000144B1B683B607B68082B15D13B68032B66
:1040100012D801A252F823F0294000002D400000E0
:104020003140000035400000012306E0012304E098
:10403000012302E0012300E0002318460C37BD46AF
:104040005DF8047B704700BF30010010E00F00F006
:10405000E80F00F03401001080B400AF034B044AB5
:104060001A6000BFBD465DF8047B70474400002025
:104070000090D00380B500AF944BDB68934A43F0C7
:104080008073D3604FF08043D3F85C354FF08042AB
:1040900043F48033C2F85C358D4B40F20132C3F8F3
:1040A0000027FFF75BFE0346002B0ED04FF0804346
:1040B0000022C3F80C214FF080430022C3F81021E6
:1040C0004FF080430022C3F83825FFF789FE0346EE
:1040D000002B76D04FF080537E4AD3F80434C2F8D8
:1040E00020354FF080537B4AD3F80834C2F824358A
:1040F0004FF08053774AD3F80C34C2F828354FF08C
:104100008053744AD3F81034C2F82C354FF08053E2
:10411000704AD3F81434C2F830354FF080536D4AEA
:10412000D3F81834C2F834354FF08053694AD3F8C5
:104130001C34C2F840354FF08053664AD3F820341F
:10414000C2F844354FF08053624AD3F82434C2F8A1
:1041500048354FF080535F4AD3F82834C2F84C35C5
:104160004FF080535B4AD3F82C34C2F850354FF0EF
:104170008053584AD3F83034C2F854354FF0805346
:10418000544AD3F83434C2F860354FF08053514A62
:10419000D3F83834C2F864354FF080534D4AD3F821
:1041A0003C34C2F868354FF080534A4AD3F8403463
:1041B000C2F86C354FF08053464AD3F84434C2F805
:1041C0007035FFF74FFE0346002B02D0424B434AA7
:1041D0001A60FFF775FE0346002B03D0404BFB220D
:1041E000C3F81825FFF79AFE0346002B0AD03D4B73
:1041F0001B6823F00F023C4B1B6803F00F03394987
:1042000013430B60FFF7B8FE0346002B03D0374B78
:104210004FF400721A60FFF7DDFE0346002B0DD04D
:104220004FF08043D3F8003403F00103002B05D096
:104230004FF080436FF00102C3F800242C4BD3F8F9
:1042400088302B4A43F47003C2F88830BFF34F8F95
:10425000BFF36F8F4FF01023D3F80032002B05DB34
:104260004FF01023D3F80432002B2BDA214B01221C
:10427000C3F8042500BF1F4BD3F80034002BFAD03D
:104280004FF010231222C3F8002200BF194BD3F8BD
:104290000034002BFAD04FF010231222C3F804226E
:1042A00000BF144BD3F80034002BFAD0114B00227E
:1042B000C3F8042500BF0F4BD3F80034002BFAD00D
:1042C000FFF738FDFFF7C8FE00BF80BDF0ED00E04E
:1042D0000003005000C000408C560040488103009D
:1042E00000F00040E40E00405802001040960240EA
:1042F00000ED00E000E0014008B5074B044613B1B3
:104300000021AFF30080054B1868836A03B198471A
:10431000204600F0B5FC00BF00000000504D00003A
:1043200070B50D4E0D4CA41BA4100025A54209D15B
:104330000B4E0C4C00F0A6FCA41BA4100025A542BB
:1043400005D170BD56F8253098470135EEE756F88F
:10435000253098470135F2E7AC000020AC00002082
:10436000AC000020B000002010B5431E0A4491426A
:1043700000D110BD11F8014B03F8014FF7E70244DB
:104380000346934200D1704703F8011BF9E730B5AB
:10439000141E05469BB0184605DA8B232B604FF0A0
:1043A000FF301BB030BD4FF40273ADF80C3014BFBA
:1043B00004F1FF332346029305934FF6FF730091F8
:1043C0000491ADF80E3002461E9B6946284600F067
:1043D00073F8431CBCBF8B232B60002CE1D0009BE7
:1043E00000221A70DDE7000007B5009313460A4665
:1043F000014603480068FFF7CAFF03B05DF804FBFD
:10440000480000202DE9F0478E689E4282460C4607
:104410009046994637D88A8912F4906F31D0256832
:1044200009696F1A6569022305EB450595FBF3F5EC
:1044300009F101033B449D4238BF1D46530530D569
:10444000294600F075FB064650B90C23CAF8003027
:10445000A38943F04003A3814FF0FF30BDE8F0870C
:104460003A462169FFF780FFA38923F4906343F064
:104470008003A381266165613E44ED1B2660A56033
:104480004E464E4500D94E4632464146206800F021
:10449000E7FAA3689B1BA36023681E4426600020E4
:1044A000DCE72A4600F09EFB06460028E2D121699F
:1044B000504600F0EFFAC8E72DE9F04F1D468B8912
:1044C0001F069DB080460C4616460FD50B696BB98A
:1044D000402100F02DFB2060206128B90C23C8F892
:1044E00000304FF0FF30C8E04023636100230993A0
:1044F00020238DF8293030238DF82A3003954FF092
:10450000010B37463D4615F8013B0BB1252B3ED13B
:10451000B7EB060A0BD05346324621464046FFF71A
:1045200071FF013000F0A480099B534409933B784C
:10453000002B00F09D8000234FF0FF32CDE90523D2
:10454000049307938DF853301A932F46052217F8DA
:10455000011B504800F034FA049BD0B9D90644BF7F
:1045600020228DF853201A0744BF2B228DF85320A8
:104570002A782A2A15D0079A2F4600200A2539467C
:1045800011F8013B303B092B4DD9B8B10FE02F4654
:10459000B8E7404A801A0BFA00F0184304903D46F1
:1045A000D3E7039A111D12680391002A01DB0792D9
:1045B00004E0524243F00203079204933B782E2B0F
:1045C0000CD17B782A2B33D1039B1A1D1B680392D5
:1045D000002BB8BF4FF0FF33023705932E4D3978CB
:1045E0000322284600F0ECF938B14023401B03FABF
:1045F00000F0049B034301370493397827488DF872
:10460000281006227E1C00F0DBF9002838D0244B4D
:1046100013BB039B073323F0070308330393099B62
:104620004B4409936DE705FB023201200F46A6E7D4
:1046300000230137059319460A25384610F8012B47
:10464000303A092A03D9002BC8D00591C6E705FBEB
:10465000012101230746F0E703AB00932246114BEB
:1046600004A94046AFF30080B0F1FF3F8146D6D1A8
:10467000A3895B063FF535AF09981DB0BDE8F08F03
:1046800003AB00932246074B04A9404600F082F892
:10469000EAE700BF544D00005A4D00005E4D000097
:1046A00000000000054400002DE9F04791461F4638
:1046B0008A680B69DDF820809342B8BF1346C9F8B9
:1046C000003091F8432006460C4612B10133C9F878
:1046D00000302368990642BFD9F800300233C9F888
:1046E0000030256815F0060507D104F1190AE368C2
:1046F000D9F800209B1AAB4228DC94F8433022689A
:10470000003318BF012392062DD404F14302394629
:104710003046C047013020D02368E568D9F8002032
:1047200003F00603042B08BFAD1AA36822690CBF6F
:1047300025EAE57500259342C4BF9B1AED184FF09A
:1047400000091A344D451AD1002008E001235246D1
:1047500039463046C047013003D14FF0FF30BDE845
:10476000F0870135C3E7E1185A1C302081F8430077
:10477000224494F8451082F843100233C5E7012320
:10478000224639463046C0470130E6D009F10109DA
:10479000D8E700002DE9F04301F1430C0C46097EF7
:1047A00085B06E291746064698460C9A00F0B380ED
:1047B00022D8632936D00AD8002900F0B9805829B8
:1047C00000F0838004F1420584F8421032E064294D
:1047D00001D06929F6D120681368050603F10401A8
:1047E0002AD51B681160002B03DA2D225B4284F866
:1047F00043206F480A2239E0732900F09D8008D8D1
:104800006F2920D07029DDD1236843F02003236075
:1048100003E0752917D07829D4D1782384F845305E
:10482000644855E01368191D1B68116004F14205C6
:1048300084F8423001238CE01B68116010F0400FB7
:1048400018BF1BB2CFE713682568181D1060280633
:1048500001D51B6802E06806FBD51B8854486F2908
:1048600014BF0A220822002184F843106568A5605D
:10487000002DC0F29580216821F004012160002BF9
:104880003DD1002D40F08E806546082A0BD123686B
:10489000DB0708D5236962689A42DEBF302305F83A
:1048A000013C05F1FF35ACEB05032361CDF8008039
:1048B0003B4603AA21463046FFF7F6FE01304DD1B4
:1048C0004FF0FF3005B0BDE8F083394884F845105B
:1048D000136821681D1D1B6815600A060BD5CA07E1
:1048E00044BF41F0200121601BB9226822F0200260
:1048F00022601022B7E74D0648BF9BB2EFE765463E
:10490000B3FBF2F102FB1133C35C05F8013D0B462A
:104910000029F5D1B9E7136825686169181D106091
:1049200028061B6801D5196002E06A06FBD51980CC
:10493000002323616546B9E71368191D11601D68DE
:1049400062680021284600F03BF808B1401B606017
:1049500063682361002384F84330A7E723692A466C
:1049600039463046C0470130AAD023689B0713D48C
:10497000E068039B9842B8BF1846A3E701234A4664
:1049800039463046C04701309AD00135E368039A72
:104990009B1AAB42F2DCEBE7002504F11909F5E7BD
:1049A000002BACD1037884F8423004F142056CE767
:1049B000654D0000764D0000000000000000000082
:1049C00001F0FF01102A2BDB10F0070F08D010F8C0
:1049D000013B013A8B422DD010F0070F42B3F6D1C4
:1049E000F0B441EA012141EA014122F007047FF0DD
:1049F00000070023F0E80256083C85EA010586EA34
:104A0000010685FA47F5A3FA87F586FA47F6A5FA6F
:104A100087F68EB9EED1F0BC01F0FF0102F007027B
:104A200032B110F8013B013A83EA010313B1F8D126
:104A30000020704701387047002D06BF3546033807
:104A4000073815F0010F07D1013015F4807F02BF40
:104A5000013015F4C03F0130F0BC0138704700BF91
:104A6000884210B501EB020307D8421E99420AD0D2
:104A700011F8014B02F8014FF8E78342F5D981188C
:104A8000D21AD34200D110BD13F8014D01F8014DE7
:104A9000F7E7000038B50546002945D051F8043C39
:104AA0000C1F002BB8BFE41800F0D2F81F4A13689F
:104AB000104633B9636014602846BDE8384000F002
:104AC000C8B8A3420CD921686218934204BF1A687F
:104AD0005B68636004BF521822600460ECE7134611
:104AE0005A680AB1A242FAD919685818A0420BD1E3
:104AF00020680144581882421960DDD1106852685C
:104B00005A6001441960D7E702D90C232B60D3E720
:104B1000206821188A4204BF11685268626004BF8D
:104B2000091821605C60C7E738BD00BF2C06002073
:104B300070B5CD1C25F0030508350C2D38BF0C25AC
:104B4000002D064601DBA94203D90C233360002067
:104B500070BD00F07DF8214A1468214691B9204CBF
:104B600023681BB9304600F063F8206029463046C0
:104B700000F05EF8431C24D10C233360304600F073
:104B800068F8E4E70B685B1B18D40B2B0FD90B609C
:104B9000CD50CC18304600F05CF804F10B00231D1A
:104BA00020F00700C31AD3D05A42E250D0E78C421B
:104BB0004B6816BF636013600C46EBE70C46496810
:104BC000CCE7C41C24F00304A04205D0211A3046CF
:104BD00000F02EF80130CFD02560DBE72C06002056
:104BE00030060020F8B5074614460E4621B9114696
:104BF000BDE8F840FFF79CBF22B9FFF74BFF254601
:104C00002846F8BD00F026F8A0420FD221463846CB
:104C1000FFF78EFF05460028F2D031462246FFF707
:104C2000A3FB31463846FFF735FFE9E73546E7E7AE
:104C300038B5064C002305460846236000F012F8FC
:104C4000431C02D1236803B12B6038BDB806002095
:104C50007047704751F8043C181F002BBCBF0B581D
:104C6000C0187047044A05491368002B08BF0B465B
:104C7000184410601846704734060020C006002013
:104C8000FEE700BFF8B500BFF8BC08BC9E46704701
:104C9000F8B500BFF8BC08BC9E46704772656365F6
:104CA0006976656420646174613A206C656E67742E
:104CB000683A2025642C20636D643D253032580A03
:104CC00000000000425554544F4E2050524553535B
:104CD00045440A00737461727475700A0000000024
:104CE00000900040010400005458205355434345B0
:104CF0005353204556454E542028256C7520617429
:104D000074656D707473290A0000000054582046C1
:104D100041494C4544204556454E540A0000000088
:104D20005258205245434549564544204556454E24
:104D3000540A000000000000000000000000000015
:104D40000338FDD8704700000000005000030050F9
:104D50004C000020232D302B2000686C4C00656631
:104D600067454647003031323334353637383941BC
:104D700042434445460030313233343536373839D2
:0C4D8000616263646566000000000000D2
:084D8C0000B5FF7F01000000EB
:104D9400646464640100000001000000000000007D
:104DA40001020000FA0003000001022000000000DC
:104DB400C2C2C2C201E7E7E7E7E70000E7E7E7E7C7
:104DC400C2C2C2C2E7C2C3C4C5C6C7C80805FF027F
:104DD400130100000090D0034C00002000000000EC
:104DE40000000000000000000000000000000000BF
:104DF40000000000000000000000000000000000AF
:104E0400000000000000000000000000000000009E
:104E1400000000000000000000000000000000008E
:104E2400000000000000000000000000000000007E
:104E34000000000000000000000000006902000003
:044E44004102000027
:04000003000009915F
:00000001FF
